{"abi":[{"type":"constructor","inputs":[],"stateMutability":"nonpayable"},{"type":"fallback","stateMutability":"payable"},{"type":"receive","stateMutability":"payable"},{"type":"function","name":"balance","inputs":[],"outputs":[{"name":"","type":"uint256","internalType":"uint256"}],"stateMutability":"view"},{"type":"function","name":"feeds","inputs":[{"name":"","type":"uint256","internalType":"uint256"}],"outputs":[{"name":"pair","type":"string","internalType":"string"},{"name":"feed","type":"address","internalType":"contract AggregatorV3Interface"}],"stateMutability":"view"},{"type":"function","name":"getMediumPrice","inputs":[{"name":"_pair","type":"string","internalType":"string"}],"outputs":[{"name":"","type":"uint256","internalType":"uint256"}],"stateMutability":"view"},{"type":"function","name":"getPriceInPangolin","inputs":[{"name":"tokenA","type":"address","internalType":"address"},{"name":"tokenB","type":"address","internalType":"address"}],"outputs":[{"name":"price","type":"uint256","internalType":"uint256"}],"stateMutability":"view"},{"type":"function","name":"getPriceInUniswap","inputs":[{"name":"tokenA","type":"address","internalType":"address"},{"name":"tokenB","type":"address","internalType":"address"}],"outputs":[{"name":"price","type":"uint256","internalType":"uint256"}],"stateMutability":"view"},{"type":"function","name":"getTokenAddresses","inputs":[{"name":"_pair","type":"string","internalType":"string"}],"outputs":[{"name":"tokenA","type":"address","internalType":"address"},{"name":"tokenB","type":"address","internalType":"address"}],"stateMutability":"pure"},{"type":"function","name":"makeAnalysis","inputs":[{"name":"_pair","type":"string","internalType":"string"}],"outputs":[{"name":"","type":"string","internalType":"string"}],"stateMutability":"view"}],"bytecode":{"object":"0x608060405234801561000f575f5ffd5b505f60405180604001604052806040518060400160405280600881526020017f415641582f5553440000000000000000000000000000000000000000000000008152508152602001730a77230d17318075983913bc2145db16c736615673ffffffffffffffffffffffffffffffffffffffff16815250908060018154018082558091505060019003905f5260205f2090600202015f909190919091505f820151815f0190816100be9190610913565b506020820151816001015f6101000a81548173ffffffffffffffffffffffffffffffffffffffff021916908373ffffffffffffffffffffffffffffffffffffffff16021790555050505f60405180604001604052806040518060400160405280600781526020017f4254432f555344000000000000000000000000000000000000000000000000008152508152602001732779d32d5166baaa2b2b658333ba7e6ec0c6574373ffffffffffffffffffffffffffffffffffffffff16815250908060018154018082558091505060019003905f5260205f2090600202015f909190919091505f820151815f0190816101b59190610913565b506020820151816001015f6101000a81548173ffffffffffffffffffffffffffffffffffffffff021916908373ffffffffffffffffffffffffffffffffffffffff16021790555050505f60405180604001604052806040518060400160405280600781526020017f4554482f55534400000000000000000000000000000000000000000000000000815250815260200173976b3d034e162d8bd72d6b9c989d545b839003b073ffffffffffffffffffffffffffffffffffffffff16815250908060018154018082558091505060019003905f5260205f2090600202015f909190919091505f820151815f0190816102ac9190610913565b506020820151816001015f6101000a81548173ffffffffffffffffffffffffffffffffffffffff021916908373ffffffffffffffffffffffffffffffffffffffff16021790555050505f60405180604001604052806040518060400160405280600881526020017f555344432f555344000000000000000000000000000000000000000000000000815250815260200173f096872672f44d6eba71458d74fe67f9a77a23b973ffffffffffffffffffffffffffffffffffffffff16815250908060018154018082558091505060019003905f5260205f2090600202015f909190919091505f820151815f0190816103a39190610913565b506020820151816001015f6101000a81548173ffffffffffffffffffffffffffffffffffffffff021916908373ffffffffffffffffffffffffffffffffffffffff16021790555050505f60405180604001604052806040518060400160405280600881526020017f555344542f555344000000000000000000000000000000000000000000000000815250815260200173ebe676ee90fe1112671f19b6b7459bc678b67e8a73ffffffffffffffffffffffffffffffffffffffff16815250908060018154018082558091505060019003905f5260205f2090600202015f909190919091505f820151815f01908161049a9190610913565b506020820151816001015f6101000a81548173ffffffffffffffffffffffffffffffffffffffff021916908373ffffffffffffffffffffffffffffffffffffffff16021790555050505f60405180604001604052806040518060400160405280600781526020017f4441492f5553440000000000000000000000000000000000000000000000000081525081526020017351d7180eda2260cc4f6e4eebb82fef5c3c2b830073ffffffffffffffffffffffffffffffffffffffff16815250908060018154018082558091505060019003905f5260205f2090600202015f909190919091505f820151815f0190816105919190610913565b506020820151816001015f6101000a81548173ffffffffffffffffffffffffffffffffffffffff021916908373ffffffffffffffffffffffffffffffffffffffff16021790555050505f60405180604001604052806040518060400160405280600881526020017f4c494e4b2f55534400000000000000000000000000000000000000000000000081525081526020017349ccd9ca821efeab2b98c60dc60f518e765ede9a73ffffffffffffffffffffffffffffffffffffffff16815250908060018154018082558091505060019003905f5260205f2090600202015f909190919091505f820151815f0190816106889190610913565b506020820151816001015f6101000a81548173ffffffffffffffffffffffffffffffffffffffff021916908373ffffffffffffffffffffffffffffffffffffffff16021790555050506109e2565b5f81519050919050565b7f4e487b71000000000000000000000000000000000000000000000000000000005f52604160045260245ffd5b7f4e487b71000000000000000000000000000000000000000000000000000000005f52602260045260245ffd5b5f600282049050600182168061075157607f821691505b6020821081036107645761076361070d565b5b50919050565b5f819050815f5260205f209050919050565b5f6020601f8301049050919050565b5f82821b905092915050565b5f600883026107c67fffffffffffffffffffffffffffffffffffffffffffffffffffffffffffffffff8261078b565b6107d0868361078b565b95508019841693508086168417925050509392505050565b5f819050919050565b5f819050919050565b5f61081461080f61080a846107e8565b6107f1565b6107e8565b9050919050565b5f819050919050565b61082d836107fa565b6108416108398261081b565b848454610797565b825550505050565b5f5f905090565b610858610849565b610863818484610824565b505050565b5b818110156108865761087b5f82610850565b600181019050610869565b5050565b601f8211156108cb5761089c8161076a565b6108a58461077c565b810160208510156108b4578190505b6108c86108c08561077c565b830182610868565b50505b505050565b5f82821c905092915050565b5f6108eb5f19846008026108d0565b1980831691505092915050565b5f61090383836108dc565b9150826002028217905092915050565b61091c826106d6565b67ffffffffffffffff811115610935576109346106e0565b5b61093f825461073a565b61094a82828561088a565b5f60209050601f83116001811461097b575f8415610969578287015190505b61097385826108f8565b8655506109da565b601f1984166109898661076a565b5f5b828110156109b05784890151825560018201915060208501945060208101905061098b565b868310156109cd57848901516109c9601f8916826108dc565b8355505b6001600288020188555050505b505050505050565b611d5e806109ef5f395ff3fe608060405260043610610073575f3560e01c8063b69ef8a81161004d578063b69ef8a81461012c578063d4c0309314610156578063f615326d14610192578063fd465261146101ce57610074565b8063348fd12f146100765780634a5479f3146100b2578063a6ae62a6146100ef57610074565b5b005b348015610081575f5ffd5b5061009c60048036038101906100979190611130565b61020a565b6040516100a9919061118f565b60405180910390f35b3480156100bd575f5ffd5b506100d860048036038101906100d391906111d2565b61036c565b6040516100e69291906112d7565b60405180910390f35b3480156100fa575f5ffd5b5061011560048036038101906101109190611130565b61043f565b604051610123929190611325565b60405180910390f35b348015610137575f5ffd5b506101406107cd565b60405161014d919061118f565b60405180910390f35b348015610161575f5ffd5b5061017c60048036038101906101779190611376565b6107d4565b604051610189919061118f565b60405180910390f35b34801561019d575f5ffd5b506101b860048036038101906101b39190611376565b6108f2565b6040516101c5919061118f565b60405180910390f35b3480156101d9575f5ffd5b506101f460048036038101906101ef9190611130565b610b85565b60405161020191906113b4565b60405180910390f35b5f5f5f90505b5f8054905081101561032b575f818154811061022f5761022e6113d4565b5b905f5260205f2090600202015f0160405161024a91906114fa565b604051809103902083805190602001200361031e575f5f8281548110610273576102726113d4565b5b905f5260205f2090600202016001015f9054906101000a900473ffffffffffffffffffffffffffffffffffffffff1673ffffffffffffffffffffffffffffffffffffffff1663feaf968c6040518163ffffffff1660e01b815260040160a060405180830381865afa1580156102ea573d5f5f3e3d5ffd5b505050506040513d601f19601f8201168201806040525081019061030e9190611596565b5050509150508092505050610367565b8080600101915050610210565b506040517f08c379a000000000000000000000000000000000000000000000000000000000815260040161035e90611657565b60405180910390fd5b919050565b5f818154811061037a575f80fd5b905f5260205f2090600202015f91509050805f0180546103999061142e565b80601f01602080910402602001604051908101604052809291908181526020018280546103c59061142e565b80156104105780601f106103e757610100808354040283529160200191610410565b820191905f5260205f20905b8154815290600101906020018083116103f357829003601f168201915b505050505090806001015f9054906101000a900473ffffffffffffffffffffffffffffffffffffffff16905082565b5f5f5f838051906020012090506040518060400160405280600881526020017f415641582f5553440000000000000000000000000000000000000000000000008152508051906020012081036104c35773b31f66aa3c1e785363f0875a1b74e27b85fd66c773a7d7079b0fead91f3e65f86e8915cb59c1a4c66492509250506107c8565b6040518060400160405280600781526020017f4254432f5553440000000000000000000000000000000000000000000000000081525080519060200120810361053a577350b7545627a5162f82a992c33b87adc75187b21873a7d7079b0fead91f3e65f86e8915cb59c1a4c66492509250506107c8565b6040518060400160405280600781526020017f4554482f555344000000000000000000000000000000000000000000000000008152508051906020012081036105b1577349d5c2bdffac6ce2bfdb6640f4f80f226bc10bab73a7d7079b0fead91f3e65f86e8915cb59c1a4c66492509250506107c8565b6040518060400160405280600881526020017f555344432f5553440000000000000000000000000000000000000000000000008152508051906020012081036106285773a7d7079b0fead91f3e65f86e8915cb59c1a4c66473b97ef9ef8734c71904d8002f8b6bc66dd9c48a6e92509250506107c8565b6040518060400160405280600881526020017f555344542f55534400000000000000000000000000000000000000000000000081525080519060200120810361069f5773c7198437980c041c805a1edcba50c1ce5db9511873b97ef9ef8734c71904d8002f8b6bc66dd9c48a6e92509250506107c8565b6040518060400160405280600781526020017f4441492f555344000000000000000000000000000000000000000000000000008152508051906020012081036107165773d586e7f844cea2f87f50152665bcbc2c279d8d7073b97ef9ef8734c71904d8002f8b6bc66dd9c48a6e92509250506107c8565b6040518060400160405280600881526020017f4c494e4b2f55534400000000000000000000000000000000000000000000000081525080519060200120810361078d57735947bb275c521040051d82396192181b413227a373a7d7079b0fead91f3e65f86e8915cb59c1a4c66492509250506107c8565b6040517f08c379a00000000000000000000000000000000000000000000000000000000081526004016107bf906116bf565b60405180910390fd5b915091565b5f47905090565b5f5f73740b1c1de25031c31ff4fc9a62f554a55cdc1bad90505f6107f9828686610d47565b90505f73ffffffffffffffffffffffffffffffffffffffff168173ffffffffffffffffffffffffffffffffffffffff1603610869576040517f08c379a000000000000000000000000000000000000000000000000000000000815260040161086090611727565b60405180910390fd5b5f5f610876848888610db6565b915091505f8211801561088857505f81115b6108c7576040517f08c379a00000000000000000000000000000000000000000000000000000000081526004016108be9061178f565b60405180910390fd5b81670de0b6b3a7640000826108dc91906117da565b6108e69190611848565b94505050505092915050565b5f5f739ad6c38be94206ca50bb0d90783181662f0cfa1090505f8173ffffffffffffffffffffffffffffffffffffffff1663e6a4390586866040518363ffffffff1660e01b8152600401610947929190611325565b602060405180830381865afa158015610962573d5f5f3e3d5ffd5b505050506040513d601f19601f82011682018060405250810190610986919061188c565b90505f73ffffffffffffffffffffffffffffffffffffffff168173ffffffffffffffffffffffffffffffffffffffff16036109f6576040517f08c379a00000000000000000000000000000000000000000000000000000000081526004016109ed90611901565b60405180910390fd5b5f5f8273ffffffffffffffffffffffffffffffffffffffff16630902f1ac6040518163ffffffff1660e01b8152600401606060405180830381865afa158015610a41573d5f5f3e3d5ffd5b505050506040513d601f19601f82011682018060405250810190610a65919061199b565b506dffffffffffffffffffffffffffff1691506dffffffffffffffffffffffffffff1691505f8373ffffffffffffffffffffffffffffffffffffffff16630dfe16816040518163ffffffff1660e01b8152600401602060405180830381865afa158015610ad4573d5f5f3e3d5ffd5b505050506040513d601f19601f82011682018060405250810190610af8919061188c565b90508073ffffffffffffffffffffffffffffffffffffffff168873ffffffffffffffffffffffffffffffffffffffff1603610b585782670de0b6b3a764000083610b4291906117da565b610b4c9190611848565b95505050505050610b7f565b81670de0b6b3a764000084610b6d91906117da565b610b779190611848565b955050505050505b92915050565b60605f610b918361020a565b90505f5f610b9e8561043f565b915091505f3073ffffffffffffffffffffffffffffffffffffffff1663d4c0309384846040518363ffffffff1660e01b8152600401610bde929190611325565b602060405180830381865afa158015610bf9573d5f5f3e3d5ffd5b505050506040513d601f19601f82011682018060405250810190610c1d91906119eb565b90505f3073ffffffffffffffffffffffffffffffffffffffff1663f615326d85856040518363ffffffff1660e01b8152600401610c5b929190611325565b602060405180830381865afa158015610c76573d5f5f3e3d5ffd5b505050506040513d601f19601f82011682018060405250810190610c9a91906119eb565b905081811015610cf557848111610cd057604051806080016040528060458152602001611ca06045913995505050505050610d42565b604051806080016040528060418152602001611c5f6041913995505050505050610d42565b848211610d2157604051806080016040528060448152602001611ce56044913995505050505050610d42565b604051806080016040528060418152602001611c5f60419139955050505050505b919050565b5f5f5f610d548585610eb9565b91509150858282604051602001610d6c929190611a5b565b60405160208183030381529060405280519060200120604051602001610d93929190611b4d565b604051602081830303815290604052805190602001205f1c925050509392505050565b5f5f5f610dc38585610eb9565b5090505f610dd2878787610d47565b90505f5f8273ffffffffffffffffffffffffffffffffffffffff16630902f1ac6040518163ffffffff1660e01b8152600401606060405180830381865afa158015610e1f573d5f5f3e3d5ffd5b505050506040513d601f19601f82011682018060405250810190610e43919061199b565b506dffffffffffffffffffffffffffff1691506dffffffffffffffffffffffffffff1691508373ffffffffffffffffffffffffffffffffffffffff168873ffffffffffffffffffffffffffffffffffffffff1614610ea2578082610ea5565b81815b809650819750505050505050935093915050565b5f5f8273ffffffffffffffffffffffffffffffffffffffff168473ffffffffffffffffffffffffffffffffffffffff1603610f29576040517f08c379a0000000000000000000000000000000000000000000000000000000008152600401610f2090611bd8565b60405180910390fd5b8273ffffffffffffffffffffffffffffffffffffffff168473ffffffffffffffffffffffffffffffffffffffff1610610f63578284610f66565b83835b80925081935050505f73ffffffffffffffffffffffffffffffffffffffff168273ffffffffffffffffffffffffffffffffffffffff1603610fdc576040517f08c379a0000000000000000000000000000000000000000000000000000000008152600401610fd390611c40565b60405180910390fd5b9250929050565b5f604051905090565b5f5ffd5b5f5ffd5b5f5ffd5b5f5ffd5b5f601f19601f8301169050919050565b7f4e487b71000000000000000000000000000000000000000000000000000000005f52604160045260245ffd5b61104282610ffc565b810181811067ffffffffffffffff821117156110615761106061100c565b5b80604052505050565b5f611073610fe3565b905061107f8282611039565b919050565b5f67ffffffffffffffff82111561109e5761109d61100c565b5b6110a782610ffc565b9050602081019050919050565b828183375f83830152505050565b5f6110d46110cf84611084565b61106a565b9050828152602081018484840111156110f0576110ef610ff8565b5b6110fb8482856110b4565b509392505050565b5f82601f83011261111757611116610ff4565b5b81356111278482602086016110c2565b91505092915050565b5f6020828403121561114557611144610fec565b5b5f82013567ffffffffffffffff81111561116257611161610ff0565b5b61116e84828501611103565b91505092915050565b5f819050919050565b61118981611177565b82525050565b5f6020820190506111a25f830184611180565b92915050565b6111b181611177565b81146111bb575f5ffd5b50565b5f813590506111cc816111a8565b92915050565b5f602082840312156111e7576111e6610fec565b5b5f6111f4848285016111be565b91505092915050565b5f81519050919050565b5f82825260208201905092915050565b8281835e5f83830152505050565b5f61122f826111fd565b6112398185611207565b9350611249818560208601611217565b61125281610ffc565b840191505092915050565b5f73ffffffffffffffffffffffffffffffffffffffff82169050919050565b5f819050919050565b5f61129f61129a6112958461125d565b61127c565b61125d565b9050919050565b5f6112b082611285565b9050919050565b5f6112c1826112a6565b9050919050565b6112d1816112b7565b82525050565b5f6040820190508181035f8301526112ef8185611225565b90506112fe60208301846112c8565b9392505050565b5f61130f8261125d565b9050919050565b61131f81611305565b82525050565b5f6040820190506113385f830185611316565b6113456020830184611316565b9392505050565b61135581611305565b811461135f575f5ffd5b50565b5f813590506113708161134c565b92915050565b5f5f6040838503121561138c5761138b610fec565b5b5f61139985828601611362565b92505060206113aa85828601611362565b9150509250929050565b5f6020820190508181035f8301526113cc8184611225565b905092915050565b7f4e487b71000000000000000000000000000000000000000000000000000000005f52603260045260245ffd5b7f4e487b71000000000000000000000000000000000000000000000000000000005f52602260045260245ffd5b5f600282049050600182168061144557607f821691505b60208210810361145857611457611401565b5b50919050565b5f81905092915050565b5f819050815f5260205f209050919050565b5f81546114868161142e565b611490818661145e565b9450600182165f81146114aa57600181146114bf576114f1565b60ff19831686528115158202860193506114f1565b6114c885611468565b5f5b838110156114e9578154818901526001820191506020810190506114ca565b838801955050505b50505092915050565b5f611505828461147a565b915081905092915050565b5f69ffffffffffffffffffff82169050919050565b61152e81611510565b8114611538575f5ffd5b50565b5f8151905061154981611525565b92915050565b5f819050919050565b6115618161154f565b811461156b575f5ffd5b50565b5f8151905061157c81611558565b92915050565b5f81519050611590816111a8565b92915050565b5f5f5f5f5f60a086880312156115af576115ae610fec565b5b5f6115bc8882890161153b565b95505060206115cd8882890161156e565b94505060406115de88828901611582565b93505060606115ef88828901611582565b92505060806116008882890161153b565b9150509295509295909350565b7f50616972206e6f7420666f756e640000000000000000000000000000000000005f82015250565b5f611641600e83611207565b915061164c8261160d565b602082019050919050565b5f6020820190508181035f83015261166e81611635565b9050919050565b7f556e6b6e6f776e205061697200000000000000000000000000000000000000005f82015250565b5f6116a9600c83611207565b91506116b482611675565b602082019050919050565b5f6020820190508181035f8301526116d68161169d565b9050919050565b7f5061697220646f6573206e6f74206578697374000000000000000000000000005f82015250565b5f611711601383611207565b915061171c826116dd565b602082019050919050565b5f6020820190508181035f83015261173e81611705565b9050919050565b7f4e6f2072657365727665730000000000000000000000000000000000000000005f82015250565b5f611779600b83611207565b915061178482611745565b602082019050919050565b5f6020820190508181035f8301526117a68161176d565b9050919050565b7f4e487b71000000000000000000000000000000000000000000000000000000005f52601160045260245ffd5b5f6117e482611177565b91506117ef83611177565b92508282026117fd81611177565b91508282048414831517611814576118136117ad565b5b5092915050565b7f4e487b71000000000000000000000000000000000000000000000000000000005f52601260045260245ffd5b5f61185282611177565b915061185d83611177565b92508261186d5761186c61181b565b5b828204905092915050565b5f815190506118868161134c565b92915050565b5f602082840312156118a1576118a0610fec565b5b5f6118ae84828501611878565b91505092915050565b7f556e6578697374656e74207061697220696e2050616e676f6c696e00000000005f82015250565b5f6118eb601b83611207565b91506118f6826118b7565b602082019050919050565b5f6020820190508181035f830152611918816118df565b9050919050565b5f6dffffffffffffffffffffffffffff82169050919050565b6119418161191f565b811461194b575f5ffd5b50565b5f8151905061195c81611938565b92915050565b5f63ffffffff82169050919050565b61197a81611962565b8114611984575f5ffd5b50565b5f8151905061199581611971565b92915050565b5f5f5f606084860312156119b2576119b1610fec565b5b5f6119bf8682870161194e565b93505060206119d08682870161194e565b92505060406119e186828701611987565b9150509250925092565b5f60208284031215611a00576119ff610fec565b5b5f611a0d84828501611582565b91505092915050565b5f8160601b9050919050565b5f611a2c82611a16565b9050919050565b5f611a3d82611a22565b9050919050565b611a55611a5082611305565b611a33565b82525050565b5f611a668285611a44565b601482019150611a768284611a44565b6014820191508190509392505050565b5f81905092915050565b7fff000000000000000000000000000000000000000000000000000000000000005f82015250565b5f611ac4600183611a86565b9150611acf82611a90565b600182019050919050565b5f819050919050565b5f819050919050565b611afd611af882611ada565b611ae3565b82525050565b7f96e8ac4277198ff8b6f785478aa9a39f403cb768dd02cbee326c3e7da348845f5f82015250565b5f611b37602083611a86565b9150611b4282611b03565b602082019050919050565b5f611b5782611ab8565b9150611b638285611a44565b601482019150611b738284611aec565b602082019150611b8282611b2b565b91508190509392505050565b7f4964656e746963616c20616464726573736573000000000000000000000000005f82015250565b5f611bc2601383611207565b9150611bcd82611b8e565b602082019050919050565b5f6020820190508181035f830152611bef81611bb6565b9050919050565b7f5a65726f206164647265737300000000000000000000000000000000000000005f82015250565b5f611c2a600c83611207565b9150611c3582611bf6565b602082019050919050565b5f6020820190508181035f830152611c5781611c1e565b905091905056fe4e6f7420696465616c3a20707269636520696e2050616e676f6c696e20616e6420556e69737761702069732061626f7665206d61726b657420617665726167652e476f6f64206f70706f7274756e6974793a2050616e676f6c696e2070726963652069732062656c6f77206f7220657175616c20746f206d61726b657420617665726167652e476f6f64206f70706f7274756e6974793a20556e69737761702070726963652069732062656c6f77206f7220657175616c20746f206d61726b657420617665726167652ea26469706673582212202349e83981a3f21e087d363600ebede69482256a8ed00fbac82976c9d3f79aa164736f6c634300081d0033","linkReferences":{}},"methodIdentifiers":{"balance()":"b69ef8a8","feeds(uint256)":"4a5479f3","getMediumPrice(string)":"348fd12f","getPriceInPangolin(address,address)":"f615326d","getPriceInUniswap(address,address)":"d4c03093","getTokenAddresses(string)":"a6ae62a6","makeAnalysis(string)":"fd465261"},"id":24}