{"abi":[{"type":"constructor","inputs":[],"stateMutability":"nonpayable"},{"type":"fallback","stateMutability":"payable"},{"type":"receive","stateMutability":"payable"},{"type":"function","name":"balance","inputs":[],"outputs":[{"name":"","type":"uint256","internalType":"uint256"}],"stateMutability":"view"},{"type":"function","name":"feeds","inputs":[{"name":"","type":"uint256","internalType":"uint256"}],"outputs":[{"name":"pair","type":"string","internalType":"string"},{"name":"feed","type":"address","internalType":"contract AggregatorV3Interface"}],"stateMutability":"view"},{"type":"function","name":"getMediumPrice","inputs":[{"name":"_pair","type":"string","internalType":"string"}],"outputs":[{"name":"","type":"uint256","internalType":"uint256"}],"stateMutability":"view"},{"type":"function","name":"getPriceInPangolin","inputs":[{"name":"tokenA","type":"address","internalType":"address"},{"name":"tokenB","type":"address","internalType":"address"}],"outputs":[{"name":"price","type":"uint256","internalType":"uint256"}],"stateMutability":"view"},{"type":"function","name":"getPriceInUniswap","inputs":[{"name":"tokenA","type":"address","internalType":"address"},{"name":"tokenB","type":"address","internalType":"address"}],"outputs":[{"name":"price","type":"uint256","internalType":"uint256"}],"stateMutability":"view"},{"type":"function","name":"getTokenAddresses","inputs":[{"name":"_pair","type":"string","internalType":"string"}],"outputs":[{"name":"tokenA","type":"address","internalType":"address"},{"name":"tokenB","type":"address","internalType":"address"}],"stateMutability":"pure"},{"type":"function","name":"makeSwap","inputs":[{"name":"_pair","type":"string","internalType":"string"},{"name":"amountIn","type":"uint256","internalType":"uint256"}],"outputs":[{"name":"","type":"string","internalType":"string"},{"name":"amountOut","type":"uint256","internalType":"uint256"}],"stateMutability":"nonpayable"}],"bytecode":{"object":"0x608060405234801561000f575f5ffd5b503360015f6101000a81548173ffffffffffffffffffffffffffffffffffffffff021916908373ffffffffffffffffffffffffffffffffffffffff1602179055505f60405180604001604052806040518060400160405280600881526020017f415641582f5553440000000000000000000000000000000000000000000000008152508152602001730a77230d17318075983913bc2145db16c736615673ffffffffffffffffffffffffffffffffffffffff16815250908060018154018082558091505060019003905f5260205f2090600202015f909190919091505f820151815f0190816100fe9190610953565b506020820151816001015f6101000a81548173ffffffffffffffffffffffffffffffffffffffff021916908373ffffffffffffffffffffffffffffffffffffffff16021790555050505f60405180604001604052806040518060400160405280600781526020017f4254432f555344000000000000000000000000000000000000000000000000008152508152602001732779d32d5166baaa2b2b658333ba7e6ec0c6574373ffffffffffffffffffffffffffffffffffffffff16815250908060018154018082558091505060019003905f5260205f2090600202015f909190919091505f820151815f0190816101f59190610953565b506020820151816001015f6101000a81548173ffffffffffffffffffffffffffffffffffffffff021916908373ffffffffffffffffffffffffffffffffffffffff16021790555050505f60405180604001604052806040518060400160405280600781526020017f4554482f55534400000000000000000000000000000000000000000000000000815250815260200173976b3d034e162d8bd72d6b9c989d545b839003b073ffffffffffffffffffffffffffffffffffffffff16815250908060018154018082558091505060019003905f5260205f2090600202015f909190919091505f820151815f0190816102ec9190610953565b506020820151816001015f6101000a81548173ffffffffffffffffffffffffffffffffffffffff021916908373ffffffffffffffffffffffffffffffffffffffff16021790555050505f60405180604001604052806040518060400160405280600881526020017f555344432f555344000000000000000000000000000000000000000000000000815250815260200173f096872672f44d6eba71458d74fe67f9a77a23b973ffffffffffffffffffffffffffffffffffffffff16815250908060018154018082558091505060019003905f5260205f2090600202015f909190919091505f820151815f0190816103e39190610953565b506020820151816001015f6101000a81548173ffffffffffffffffffffffffffffffffffffffff021916908373ffffffffffffffffffffffffffffffffffffffff16021790555050505f60405180604001604052806040518060400160405280600881526020017f555344542f555344000000000000000000000000000000000000000000000000815250815260200173ebe676ee90fe1112671f19b6b7459bc678b67e8a73ffffffffffffffffffffffffffffffffffffffff16815250908060018154018082558091505060019003905f5260205f2090600202015f909190919091505f820151815f0190816104da9190610953565b506020820151816001015f6101000a81548173ffffffffffffffffffffffffffffffffffffffff021916908373ffffffffffffffffffffffffffffffffffffffff16021790555050505f60405180604001604052806040518060400160405280600781526020017f4441492f5553440000000000000000000000000000000000000000000000000081525081526020017351d7180eda2260cc4f6e4eebb82fef5c3c2b830073ffffffffffffffffffffffffffffffffffffffff16815250908060018154018082558091505060019003905f5260205f2090600202015f909190919091505f820151815f0190816105d19190610953565b506020820151816001015f6101000a81548173ffffffffffffffffffffffffffffffffffffffff021916908373ffffffffffffffffffffffffffffffffffffffff16021790555050505f60405180604001604052806040518060400160405280600881526020017f4c494e4b2f55534400000000000000000000000000000000000000000000000081525081526020017349ccd9ca821efeab2b98c60dc60f518e765ede9a73ffffffffffffffffffffffffffffffffffffffff16815250908060018154018082558091505060019003905f5260205f2090600202015f909190919091505f820151815f0190816106c89190610953565b506020820151816001015f6101000a81548173ffffffffffffffffffffffffffffffffffffffff021916908373ffffffffffffffffffffffffffffffffffffffff1602179055505050610a22565b5f81519050919050565b7f4e487b71000000000000000000000000000000000000000000000000000000005f52604160045260245ffd5b7f4e487b71000000000000000000000000000000000000000000000000000000005f52602260045260245ffd5b5f600282049050600182168061079157607f821691505b6020821081036107a4576107a361074d565b5b50919050565b5f819050815f5260205f209050919050565b5f6020601f8301049050919050565b5f82821b905092915050565b5f600883026108067fffffffffffffffffffffffffffffffffffffffffffffffffffffffffffffffff826107cb565b61081086836107cb565b95508019841693508086168417925050509392505050565b5f819050919050565b5f819050919050565b5f61085461084f61084a84610828565b610831565b610828565b9050919050565b5f819050919050565b61086d8361083a565b6108816108798261085b565b8484546107d7565b825550505050565b5f5f905090565b610898610889565b6108a3818484610864565b505050565b5b818110156108c6576108bb5f82610890565b6001810190506108a9565b5050565b601f82111561090b576108dc816107aa565b6108e5846107bc565b810160208510156108f4578190505b610908610900856107bc565b8301826108a8565b50505b505050565b5f82821c905092915050565b5f61092b5f1984600802610910565b1980831691505092915050565b5f610943838361091c565b9150826002028217905092915050565b61095c82610716565b67ffffffffffffffff81111561097557610974610720565b5b61097f825461077a565b61098a8282856108ca565b5f60209050601f8311600181146109bb575f84156109a9578287015190505b6109b38582610938565b865550610a1a565b601f1984166109c9866107aa565b5f5b828110156109f0578489015182556001820191506020850194506020810190506109cb565b86831015610a0d5784890151610a09601f89168261091c565b8355505b6001600288020188555050505b505050505050565b6127c780610a2f5f395ff3fe608060405260043610610073575f3560e01c8063a6ae62a61161004d578063a6ae62a614610170578063b69ef8a8146101ad578063d4c03093146101d7578063f615326d14610213576100b8565b8063348fd12f146100ba5780634a5479f3146100f6578063960995f914610133576100b8565b366100b8573360015f6101000a81548173ffffffffffffffffffffffffffffffffffffffff021916908373ffffffffffffffffffffffffffffffffffffffff16021790555b005b3480156100c5575f5ffd5b506100e060048036038101906100db91906117f6565b61024f565b6040516100ed9190611855565b60405180910390f35b348015610101575f5ffd5b5061011c60048036038101906101179190611898565b6103b1565b60405161012a92919061199d565b60405180910390f35b34801561013e575f5ffd5b50610159600480360381019061015491906119cb565b610484565b604051610167929190611a25565b60405180910390f35b34801561017b575f5ffd5b50610196600480360381019061019191906117f6565b610cc7565b6040516101a4929190611a73565b60405180910390f35b3480156101b8575f5ffd5b506101c1611055565b6040516101ce9190611855565b60405180910390f35b3480156101e2575f5ffd5b506101fd60048036038101906101f89190611ac4565b61105c565b60405161020a9190611855565b60405180910390f35b34801561021e575f5ffd5b5061023960048036038101906102349190611ac4565b61117a565b6040516102469190611855565b60405180910390f35b5f5f5f90505b5f80549050811015610370575f818154811061027457610273611b02565b5b905f5260205f2090600202015f0160405161028f9190611c28565b6040518091039020838051906020012003610363575f5f82815481106102b8576102b7611b02565b5b905f5260205f2090600202016001015f9054906101000a900473ffffffffffffffffffffffffffffffffffffffff1673ffffffffffffffffffffffffffffffffffffffff1663feaf968c6040518163ffffffff1660e01b815260040160a060405180830381865afa15801561032f573d5f5f3e3d5ffd5b505050506040513d601f19601f820116820180604052508101906103539190611cc4565b50505091505080925050506103ac565b8080600101915050610255565b506040517f08c379a00000000000000000000000000000000000000000000000000000000081526004016103a390611d85565b60405180910390fd5b919050565b5f81815481106103bf575f80fd5b905f5260205f2090600202015f91509050805f0180546103de90611b5c565b80601f016020809104026020016040519081016040528092919081815260200182805461040a90611b5c565b80156104555780601f1061042c57610100808354040283529160200191610455565b820191905f5260205f20905b81548152906001019060200180831161043857829003601f168201915b505050505090806001015f9054906101000a900473ffffffffffffffffffffffffffffffffffffffff16905082565b60605f3373ffffffffffffffffffffffffffffffffffffffff1660015f9054906101000a900473ffffffffffffffffffffffffffffffffffffffff1673ffffffffffffffffffffffffffffffffffffffff1614610516576040517f08c379a000000000000000000000000000000000000000000000000000000000815260040161050d90611e13565b60405180910390fd5b5f6105208561024f565b90505f5f61052d87610cc7565b915091505f3073ffffffffffffffffffffffffffffffffffffffff1663d4c0309384846040518363ffffffff1660e01b815260040161056d929190611a73565b602060405180830381865afa158015610588573d5f5f3e3d5ffd5b505050506040513d601f19601f820116820180604052508101906105ac9190611e31565b90505f3073ffffffffffffffffffffffffffffffffffffffff1663f615326d85856040518363ffffffff1660e01b81526004016105ea929190611a73565b602060405180830381865afa158015610605573d5f5f3e3d5ffd5b505050506040513d601f19601f820116820180604052508101906106299190611e31565b90505f5f5f84841015610719578784116106d957739ad6c38be94206ca50bb0d90783181662f0cfa1092508273ffffffffffffffffffffffffffffffffffffffff1663e6a4390588886040518363ffffffff1660e01b815260040161068f929190611a73565b602060405180830381865afa1580156106aa573d5f5f3e3d5ffd5b505050506040513d601f19601f820116820180604052508101906106ce9190611e70565b915060019050610714565b6040517f08c379a000000000000000000000000000000000000000000000000000000000815260040161070b90611f31565b60405180910390fd5b610788565b87851161074c5773740b1c1de25031c31ff4fc9a62f554a55cdc1bad925061074283888861140d565b91505f9050610787565b6040517f08c379a000000000000000000000000000000000000000000000000000000000815260040161077e90611f31565b60405180910390fd5b5b5f73ffffffffffffffffffffffffffffffffffffffff168273ffffffffffffffffffffffffffffffffffffffff16036107f6576040517f08c379a00000000000000000000000000000000000000000000000000000000081526004016107ed90611d85565b60405180910390fd5b8673ffffffffffffffffffffffffffffffffffffffff166323b872dd33308e6040518463ffffffff1660e01b815260040161083393929190611f4f565b6020604051808303815f875af115801561084f573d5f5f3e3d5ffd5b505050506040513d601f19601f820116820180604052508101906108739190611fb9565b6108b2576040517f08c379a00000000000000000000000000000000000000000000000000000000081526004016108a99061202e565b60405180910390fd5b8673ffffffffffffffffffffffffffffffffffffffff1663095ea7b3838d6040518363ffffffff1660e01b81526004016108ed92919061204c565b6020604051808303815f875af1158015610909573d5f5f3e3d5ffd5b505050506040513d601f19601f8201168201806040525081019061092d9190611fb9565b61096c576040517f08c379a0000000000000000000000000000000000000000000000000000000008152600401610963906120bd565b60405180910390fd5b5f5f610979858a8a61147c565b915091505f8211801561098b57505f81115b6109ca576040517f08c379a00000000000000000000000000000000000000000000000000000000081526004016109c190612125565b60405180910390fd5b6103e58d6109d89190612170565b6103e8836109e69190612170565b6109f091906121b1565b816103e58f6109ff9190612170565b610a099190612170565b610a139190612211565b9a508873ffffffffffffffffffffffffffffffffffffffff1663a9059cbb858f6040518363ffffffff1660e01b8152600401610a5092919061204c565b6020604051808303815f875af1158015610a6c573d5f5f3e3d5ffd5b505050506040513d601f19601f82011682018060405250810190610a909190611fb9565b610acf576040517f08c379a0000000000000000000000000000000000000000000000000000000008152600401610ac69061228b565b60405180910390fd5b5f8473ffffffffffffffffffffffffffffffffffffffff16630dfe16816040518163ffffffff1660e01b8152600401602060405180830381865afa158015610b19573d5f5f3e3d5ffd5b505050506040513d601f19601f82011682018060405250810190610b3d9190611e70565b90505f5f8273ffffffffffffffffffffffffffffffffffffffff168c73ffffffffffffffffffffffffffffffffffffffff1614610b7b578d5f610b7e565b5f8e5b915091508673ffffffffffffffffffffffffffffffffffffffff1663022c0d9f8383335f67ffffffffffffffff811115610bbb57610bba6116d2565b5b6040519080825280601f01601f191660200182016040528015610bed5781602001600182028036833780820191505090505b506040518563ffffffff1660e01b8152600401610c0d94939291906122fb565b5f604051808303815f87803b158015610c24575f5ffd5b505af1158015610c36573d5f5f3e3d5ffd5b5050505085610c7a576040518060400160405280600781526020017f556e697377617000000000000000000000000000000000000000000000000000815250610cb1565b6040518060400160405280600881526020017f50616e676f6c696e0000000000000000000000000000000000000000000000008152505b9e50505050505050505050505050509250929050565b5f5f5f838051906020012090506040518060400160405280600881526020017f415641582f555344000000000000000000000000000000000000000000000000815250805190602001208103610d4b5773b31f66aa3c1e785363f0875a1b74e27b85fd66c773a7d7079b0fead91f3e65f86e8915cb59c1a4c6649250925050611050565b6040518060400160405280600781526020017f4254432f55534400000000000000000000000000000000000000000000000000815250805190602001208103610dc2577350b7545627a5162f82a992c33b87adc75187b21873a7d7079b0fead91f3e65f86e8915cb59c1a4c6649250925050611050565b6040518060400160405280600781526020017f4554482f55534400000000000000000000000000000000000000000000000000815250805190602001208103610e39577349d5c2bdffac6ce2bfdb6640f4f80f226bc10bab73a7d7079b0fead91f3e65f86e8915cb59c1a4c6649250925050611050565b6040518060400160405280600881526020017f555344432f555344000000000000000000000000000000000000000000000000815250805190602001208103610eb05773a7d7079b0fead91f3e65f86e8915cb59c1a4c66473b97ef9ef8734c71904d8002f8b6bc66dd9c48a6e9250925050611050565b6040518060400160405280600881526020017f555344542f555344000000000000000000000000000000000000000000000000815250805190602001208103610f275773c7198437980c041c805a1edcba50c1ce5db9511873b97ef9ef8734c71904d8002f8b6bc66dd9c48a6e9250925050611050565b6040518060400160405280600781526020017f4441492f55534400000000000000000000000000000000000000000000000000815250805190602001208103610f9e5773d586e7f844cea2f87f50152665bcbc2c279d8d7073b97ef9ef8734c71904d8002f8b6bc66dd9c48a6e9250925050611050565b6040518060400160405280600881526020017f4c494e4b2f55534400000000000000000000000000000000000000000000000081525080519060200120810361101557735947bb275c521040051d82396192181b413227a373a7d7079b0fead91f3e65f86e8915cb59c1a4c6649250925050611050565b6040517f08c379a00000000000000000000000000000000000000000000000000000000081526004016110479061238f565b60405180910390fd5b915091565b5f47905090565b5f5f73740b1c1de25031c31ff4fc9a62f554a55cdc1bad90505f61108182868661140d565b90505f73ffffffffffffffffffffffffffffffffffffffff168173ffffffffffffffffffffffffffffffffffffffff16036110f1576040517f08c379a00000000000000000000000000000000000000000000000000000000081526004016110e8906123f7565b60405180910390fd5b5f5f6110fe84888861147c565b915091505f8211801561111057505f81115b61114f576040517f08c379a000000000000000000000000000000000000000000000000000000000815260040161114690612125565b60405180910390fd5b81670de0b6b3a7640000826111649190612170565b61116e9190612211565b94505050505092915050565b5f5f739ad6c38be94206ca50bb0d90783181662f0cfa1090505f8173ffffffffffffffffffffffffffffffffffffffff1663e6a4390586866040518363ffffffff1660e01b81526004016111cf929190611a73565b602060405180830381865afa1580156111ea573d5f5f3e3d5ffd5b505050506040513d601f19601f8201168201806040525081019061120e9190611e70565b90505f73ffffffffffffffffffffffffffffffffffffffff168173ffffffffffffffffffffffffffffffffffffffff160361127e576040517f08c379a00000000000000000000000000000000000000000000000000000000081526004016112759061245f565b60405180910390fd5b5f5f8273ffffffffffffffffffffffffffffffffffffffff16630902f1ac6040518163ffffffff1660e01b8152600401606060405180830381865afa1580156112c9573d5f5f3e3d5ffd5b505050506040513d601f19601f820116820180604052508101906112ed91906124f9565b506dffffffffffffffffffffffffffff1691506dffffffffffffffffffffffffffff1691505f8373ffffffffffffffffffffffffffffffffffffffff16630dfe16816040518163ffffffff1660e01b8152600401602060405180830381865afa15801561135c573d5f5f3e3d5ffd5b505050506040513d601f19601f820116820180604052508101906113809190611e70565b90508073ffffffffffffffffffffffffffffffffffffffff168873ffffffffffffffffffffffffffffffffffffffff16036113e05782670de0b6b3a7640000836113ca9190612170565b6113d49190612211565b95505050505050611407565b81670de0b6b3a7640000846113f59190612170565b6113ff9190612211565b955050505050505b92915050565b5f5f5f61141a858561157f565b9150915085828260405160200161143292919061258e565b60405160208183030381529060405280519060200120604051602001611459929190612680565b604051602081830303815290604052805190602001205f1c925050509392505050565b5f5f5f611489858561157f565b5090505f61149887878761140d565b90505f5f8273ffffffffffffffffffffffffffffffffffffffff16630902f1ac6040518163ffffffff1660e01b8152600401606060405180830381865afa1580156114e5573d5f5f3e3d5ffd5b505050506040513d601f19601f8201168201806040525081019061150991906124f9565b506dffffffffffffffffffffffffffff1691506dffffffffffffffffffffffffffff1691508373ffffffffffffffffffffffffffffffffffffffff168873ffffffffffffffffffffffffffffffffffffffff161461156857808261156b565b81815b809650819750505050505050935093915050565b5f5f8273ffffffffffffffffffffffffffffffffffffffff168473ffffffffffffffffffffffffffffffffffffffff16036115ef576040517f08c379a00000000000000000000000000000000000000000000000000000000081526004016115e69061270b565b60405180910390fd5b8273ffffffffffffffffffffffffffffffffffffffff168473ffffffffffffffffffffffffffffffffffffffff161061162957828461162c565b83835b80925081935050505f73ffffffffffffffffffffffffffffffffffffffff168273ffffffffffffffffffffffffffffffffffffffff16036116a2576040517f08c379a000000000000000000000000000000000000000000000000000000000815260040161169990612773565b60405180910390fd5b9250929050565b5f604051905090565b5f5ffd5b5f5ffd5b5f5ffd5b5f5ffd5b5f601f19601f8301169050919050565b7f4e487b71000000000000000000000000000000000000000000000000000000005f52604160045260245ffd5b611708826116c2565b810181811067ffffffffffffffff82111715611727576117266116d2565b5b80604052505050565b5f6117396116a9565b905061174582826116ff565b919050565b5f67ffffffffffffffff821115611764576117636116d2565b5b61176d826116c2565b9050602081019050919050565b828183375f83830152505050565b5f61179a6117958461174a565b611730565b9050828152602081018484840111156117b6576117b56116be565b5b6117c184828561177a565b509392505050565b5f82601f8301126117dd576117dc6116ba565b5b81356117ed848260208601611788565b91505092915050565b5f6020828403121561180b5761180a6116b2565b5b5f82013567ffffffffffffffff811115611828576118276116b6565b5b611834848285016117c9565b91505092915050565b5f819050919050565b61184f8161183d565b82525050565b5f6020820190506118685f830184611846565b92915050565b6118778161183d565b8114611881575f5ffd5b50565b5f813590506118928161186e565b92915050565b5f602082840312156118ad576118ac6116b2565b5b5f6118ba84828501611884565b91505092915050565b5f81519050919050565b5f82825260208201905092915050565b8281835e5f83830152505050565b5f6118f5826118c3565b6118ff81856118cd565b935061190f8185602086016118dd565b611918816116c2565b840191505092915050565b5f73ffffffffffffffffffffffffffffffffffffffff82169050919050565b5f819050919050565b5f61196561196061195b84611923565b611942565b611923565b9050919050565b5f6119768261194b565b9050919050565b5f6119878261196c565b9050919050565b6119978161197d565b82525050565b5f6040820190508181035f8301526119b581856118eb565b90506119c4602083018461198e565b9392505050565b5f5f604083850312156119e1576119e06116b2565b5b5f83013567ffffffffffffffff8111156119fe576119fd6116b6565b5b611a0a858286016117c9565b9250506020611a1b85828601611884565b9150509250929050565b5f6040820190508181035f830152611a3d81856118eb565b9050611a4c6020830184611846565b9392505050565b5f611a5d82611923565b9050919050565b611a6d81611a53565b82525050565b5f604082019050611a865f830185611a64565b611a936020830184611a64565b9392505050565b611aa381611a53565b8114611aad575f5ffd5b50565b5f81359050611abe81611a9a565b92915050565b5f5f60408385031215611ada57611ad96116b2565b5b5f611ae785828601611ab0565b9250506020611af885828601611ab0565b9150509250929050565b7f4e487b71000000000000000000000000000000000000000000000000000000005f52603260045260245ffd5b7f4e487b71000000000000000000000000000000000000000000000000000000005f52602260045260245ffd5b5f6002820490506001821680611b7357607f821691505b602082108103611b8657611b85611b2f565b5b50919050565b5f81905092915050565b5f819050815f5260205f209050919050565b5f8154611bb481611b5c565b611bbe8186611b8c565b9450600182165f8114611bd85760018114611bed57611c1f565b60ff1983168652811515820286019350611c1f565b611bf685611b96565b5f5b83811015611c1757815481890152600182019150602081019050611bf8565b838801955050505b50505092915050565b5f611c338284611ba8565b915081905092915050565b5f69ffffffffffffffffffff82169050919050565b611c5c81611c3e565b8114611c66575f5ffd5b50565b5f81519050611c7781611c53565b92915050565b5f819050919050565b611c8f81611c7d565b8114611c99575f5ffd5b50565b5f81519050611caa81611c86565b92915050565b5f81519050611cbe8161186e565b92915050565b5f5f5f5f5f60a08688031215611cdd57611cdc6116b2565b5b5f611cea88828901611c69565b9550506020611cfb88828901611c9c565b9450506040611d0c88828901611cb0565b9350506060611d1d88828901611cb0565b9250506080611d2e88828901611c69565b9150509295509295909350565b7f50616972206e6f7420666f756e640000000000000000000000000000000000005f82015250565b5f611d6f600e836118cd565b9150611d7a82611d3b565b602082019050919050565b5f6020820190508181035f830152611d9c81611d63565b9050919050565b7f596f75206469646e27742073656e642067617320746f2066696e6973682074685f8201527f6973206175746f6d617465642073776170206f7065726174696f6e0000000000602082015250565b5f611dfd603b836118cd565b9150611e0882611da3565b604082019050919050565b5f6020820190508181035f830152611e2a81611df1565b9050919050565b5f60208284031215611e4657611e456116b2565b5b5f611e5384828501611cb0565b91505092915050565b5f81519050611e6a81611a9a565b92915050565b5f60208284031215611e8557611e846116b2565b5b5f611e9284828501611e5c565b91505092915050565b7f4e6f7420696465616c3a20707269636520696e2050616e676f6c696e20616e645f8201527f20556e69737761702069732061626f7665206d61726b6574206176657261676560208201527f2e00000000000000000000000000000000000000000000000000000000000000604082015250565b5f611f1b6041836118cd565b9150611f2682611e9b565b606082019050919050565b5f6020820190508181035f830152611f4881611f0f565b9050919050565b5f606082019050611f625f830186611a64565b611f6f6020830185611a64565b611f7c6040830184611846565b949350505050565b5f8115159050919050565b611f9881611f84565b8114611fa2575f5ffd5b50565b5f81519050611fb381611f8f565b92915050565b5f60208284031215611fce57611fcd6116b2565b5b5f611fdb84828501611fa5565b91505092915050565b7f5472616e7366657246726f6d206661696c6564000000000000000000000000005f82015250565b5f6120186013836118cd565b915061202382611fe4565b602082019050919050565b5f6020820190508181035f8301526120458161200c565b9050919050565b5f60408201905061205f5f830185611a64565b61206c6020830184611846565b9392505050565b7f417070726f7665206661696c65640000000000000000000000000000000000005f82015250565b5f6120a7600e836118cd565b91506120b282612073565b602082019050919050565b5f6020820190508181035f8301526120d48161209b565b9050919050565b7f4e6f2072657365727665730000000000000000000000000000000000000000005f82015250565b5f61210f600b836118cd565b915061211a826120db565b602082019050919050565b5f6020820190508181035f83015261213c81612103565b9050919050565b7f4e487b71000000000000000000000000000000000000000000000000000000005f52601160045260245ffd5b5f61217a8261183d565b91506121858361183d565b92508282026121938161183d565b915082820484148315176121aa576121a9612143565b5b5092915050565b5f6121bb8261183d565b91506121c68361183d565b92508282019050808211156121de576121dd612143565b5b92915050565b7f4e487b71000000000000000000000000000000000000000000000000000000005f52601260045260245ffd5b5f61221b8261183d565b91506122268361183d565b925082612236576122356121e4565b5b828204905092915050565b7f5472616e7366657220746f2070616972206661696c65640000000000000000005f82015250565b5f6122756017836118cd565b915061228082612241565b602082019050919050565b5f6020820190508181035f8301526122a281612269565b9050919050565b5f81519050919050565b5f82825260208201905092915050565b5f6122cd826122a9565b6122d781856122b3565b93506122e78185602086016118dd565b6122f0816116c2565b840191505092915050565b5f60808201905061230e5f830187611846565b61231b6020830186611846565b6123286040830185611a64565b818103606083015261233a81846122c3565b905095945050505050565b7f556e6b6e6f776e205061697200000000000000000000000000000000000000005f82015250565b5f612379600c836118cd565b915061238482612345565b602082019050919050565b5f6020820190508181035f8301526123a68161236d565b9050919050565b7f5061697220646f6573206e6f74206578697374000000000000000000000000005f82015250565b5f6123e16013836118cd565b91506123ec826123ad565b602082019050919050565b5f6020820190508181035f83015261240e816123d5565b9050919050565b7f556e6578697374656e74207061697220696e2050616e676f6c696e00000000005f82015250565b5f612449601b836118cd565b915061245482612415565b602082019050919050565b5f6020820190508181035f8301526124768161243d565b9050919050565b5f6dffffffffffffffffffffffffffff82169050919050565b61249f8161247d565b81146124a9575f5ffd5b50565b5f815190506124ba81612496565b92915050565b5f63ffffffff82169050919050565b6124d8816124c0565b81146124e2575f5ffd5b50565b5f815190506124f3816124cf565b92915050565b5f5f5f606084860312156125105761250f6116b2565b5b5f61251d868287016124ac565b935050602061252e868287016124ac565b925050604061253f868287016124e5565b9150509250925092565b5f8160601b9050919050565b5f61255f82612549565b9050919050565b5f61257082612555565b9050919050565b61258861258382611a53565b612566565b82525050565b5f6125998285612577565b6014820191506125a98284612577565b6014820191508190509392505050565b5f81905092915050565b7fff000000000000000000000000000000000000000000000000000000000000005f82015250565b5f6125f76001836125b9565b9150612602826125c3565b600182019050919050565b5f819050919050565b5f819050919050565b61263061262b8261260d565b612616565b82525050565b7f96e8ac4277198ff8b6f785478aa9a39f403cb768dd02cbee326c3e7da348845f5f82015250565b5f61266a6020836125b9565b915061267582612636565b602082019050919050565b5f61268a826125eb565b91506126968285612577565b6014820191506126a6828461261f565b6020820191506126b58261265e565b91508190509392505050565b7f4964656e746963616c20616464726573736573000000000000000000000000005f82015250565b5f6126f56013836118cd565b9150612700826126c1565b602082019050919050565b5f6020820190508181035f830152612722816126e9565b9050919050565b7f5a65726f206164647265737300000000000000000000000000000000000000005f82015250565b5f61275d600c836118cd565b915061276882612729565b602082019050919050565b5f6020820190508181035f83015261278a81612751565b905091905056fea264697066735822122050cac87b10e51712bc7fd260473c53612fbcf336bbe915d7360e72e21593121e64736f6c634300081d0033","linkReferences":{}},"methodIdentifiers":{"balance()":"b69ef8a8","feeds(uint256)":"4a5479f3","getMediumPrice(string)":"348fd12f","getPriceInPangolin(address,address)":"f615326d","getPriceInUniswap(address,address)":"d4c03093","getTokenAddresses(string)":"a6ae62a6","makeSwap(string,uint256)":"960995f9"},"id":25}